:10000000F8FF002011040000D7230000D7230000D0
:10001000D7230000D7230000D7230000D7230000F8
:10002000D7230000D7230000D7230000D7230000E8
:10003000D7230000D7230000D7230000D7230000D8
:10004000D7230000D7230000D7230000D7230000C8
:10040000FFFFFFFFFFFFFFFFFFFFFFFFFEFFFFFFFD
:1004100062B604F0F1FCFEE738B5002000250024A8
:100420002000C0B2082815DA2100C9B2782000F0F7
:1004300016FF002005002800C0B2062808DADFF801
:10044000E40C2900C9B2405C00F0AEFE6D1CF2E77E
:10045000641CE5E731BD0A78491C0270401CD2B229
:10046000002AF8D17047F8B504000D0000262900D5
:10047000C9B22000C0B200F0F2FE00273800C0B2BE
:1004800006280ADADFF89C0C3900C9B2084490F853
:100490002E0200F089FE7F1CF0E7F1BD2DE9F0414E
:1004A00004000D000020012600273800C0B21928E2
:1004B00017DA3100C9B23800C0B200F0D0FE002017
:1004C00080464046C0B2062809DADFF8580C41469B
:1004D000C9B2405C00F068FE18F10108F1E7BF1DE9
:1004E000E3E72900C9B22000C0B2FFF7BCFFBDE8B6
:1004F000F0812DE9F04F87B00024002500F0A5FF22
:1005000001A8DFF8381A162201F06EF800208DF8E5
:100510000000002701AA3900C9B29DF8000000F0D0
:1005200057FF5FF000087F1CDFF8FC1B01A8FFF7F6
:1005300092FF01AA3900C9B24046C0B200F048FF9C
:100540005FF000097F1CDFF8E41B01A8FFF783FFC1
:1005500001AA3900C9B24846C0B200F039FF5FF0C5
:10056000000A7F1CDFF8C81B01A8FFF774FF01AA6F
:100570003900C9B25046C0B200F02AFF5FF0000B4C
:100580007F1CDFF8B01B01A8FFF765FF01AA390047
:10059000C9B25846C0B200F01BFF00267F1CDFF82E
:1005A000981B01A8FFF757FF01AA3900C9B2300014
:1005B000C0B200F00DFF4FF4FA7001F09EF8200079
:1005C000C0B201285CD0C82001F097F8002001F0EB
:1005D000E5F8002805D12800C0B2002801D06D1E22
:1005E00009E0002001F0DAF8002804D12800C0B2A8
:1005F000002800D12D1D012001F0D0F8002805D1E0
:100600002800C0B2042801D06D1C0AE0012001F0CE
:10061000C5F8002805D12800C0B2042801D1002067
:100620000500FFF7F9FE50A101A8FFF714FF01AA8A
:10063000691CC9B2782000F0CBFE042001F0AEF8AE
:100640000028BCD12800C0B2002806D002280AD059
:1006500006D304280BD009D3B1E700F087F8AEE742
:1006600000F0F2F9ABE700F00EF8A8E7A7E70120E9
:10067000040000F0EAFE4FF47A7001F03EF89EE7C5
:1006800007B0BDE8F08F2DE9F84FDFF8B04A200041
:1006900000F056FC22680021022001F0E3F900245A
:1006A000002600F0D2FEDFF8985ADFF8981A2800EA
:1006B000FFF7D1FE2A0030000100C9B22000C0B20D
:1006C00000F086FE0027761CDFF85C1A2800FFF792
:1006D000C2FE2A0030000100C9B23800C0B200F0EA
:1006E00077FE5FF00008761CDFF8401A2800FFF75D
:1006F000B2FE2A0030000100C9B24046C0B200F08C
:1007000067FE5FF00009761CDFF8241A2800FFF767
:10071000A2FE2A0030000100C9B24846C0B200F073
:1007200057FE5FF0000A761CDFF8081A2800FFF772
:1007300092FE2A0030000100C9B25046C0B200F05B
:1007400047FE5FF0000B761CDFF8EC192800FFF77E
:1007500082FE2A0030000100C9B25846C0B200F043
:1007600037FEBDE8F18F00003C0000002DE9F04F9E
:1007700087B000208DF80100002400F066FE002004
:100780008DF800005FF00009ABA101A8FFF763FE40
:1007900001AA4946C9B29DF8000000F019FEDFF831
:1007A000A859D5E900234946C9B29DF800000C308C
:1007B000C0B200F069FE00208DF8000019F10109B7
:1007C0009EA101A8FFF747FE01AA4946C9B29DF8BC
:1007D000000000F0FDFDDFF87469D6E9002349460A
:1007E000C9B29DF800000C30C0B200F04DFE5FF0C1
:1007F000000819F1010992A101A8FFF72CFE01AA36
:100800004946C9B24046C0B200F0E2FDDFF8407987
:10081000D7E900234946C9B218F10C00C0B200F074
:1008200033FE00208DF8000019F10109DFF82419CA
:1008300001A8FFF710FE01AA4946C9B29DF80000C1
:1008400000F0C6FD00208DF8000019F10109DFF865
:10085000081901A8FFF7FFFD01AA4946C9B29DF892
:10086000000000F0B5FD5FF0000B19F10109DFF8A1
:10087000EC1801A8FFF7EFFD01AA4946C9B2584696
:10088000C0B200F0A5FD5FF0000A19F101098DF872
:100890000090DFF8CC1801A8FFF7DDFD01AA9DF854
:1008A00000105046C0B200F093FD4FF4FA7000F013
:1008B00024FF9DF80100042800F0BA80002000F019
:1008C0006DFF002805D12000C0B2002801D0641EB1
:1008D00009E0002000F062FF002804D12000C0B22F
:1008E000002800D1E41C012000F058FF002805D1A9
:1008F0002000C0B2032801D0641C09E0012000F0F0
:100900004DFF002804D12000C0B2032800D1E41E0E
:10091000FFF782FD4BA101A8FFF79DFD01AAE11C95
:10092000C9B2782000F054FD042000F037FF002801
:100930007AD12000C0B2002805D002280BD006D3FF
:1009400003280CD00EE0280000F0EEF90AE0300099
:1009500000F0EAF906E0380000F0E6F902E00320D2
:100960008DF8010000255FF0000B00F06EFDDFF850
:10097000D41701A8FFF76FFD01AA5946C9B2280094
:10098000C0B200F025FD00261BF1010BDFF898171F
:1009900001A8FFF760FD01AA5946C9B23000C0B2F4
:1009A00000F016FD00271BF1010BDFF8801701A8EE
:1009B000FFF751FD01AA5946C9B23800C0B200F094
:1009C00007FD5FF000081BF1010BDFF8641701A8B9
:1009D000FFF741FD01AA5946C9B24046C0B200F036
:1009E000F7FC5FF000091BF1010BDFF8481701A8C5
:1009F000FFF731FD01AA5946C9B24846C0B200F01E
:100A0000E7FC002082461BF1010B8DF800B0DFF8F7
:100A1000281701A8FFF71FFD01AA9DF800105046F6
:100A2000C0B200F0D5FC03E0C82000F066FE40E74D
:100A300007B0BDE8F08F0000503D0000493D0000C8
:100A4000443D00003C0000002DE9F04F87B000203D
:100A50008DF80100002400F0F8FC00208DF8000063
:100A60000027ADA101A8FFF7F6FC01AA3900C9B221
:100A70009DF8000000F0ACFCDFF8E856D5E9002353
:100A80003900C9B29DF800000C30C0B200F0FCFC87
:100A900000208DF800007F1CA0A101A8FFF7DBFC5F
:100AA00001AA3900C9B29DF8000000F091FCDFF8FE
:100AB000B866306801F0D8F802000B003900C9B2FE
:100AC0009DF800000C30C0B200F0DEFC00208DF874
:100AD00000007F1CB84692A101A8FFF7BCFC01AA48
:100AE0004146C9B29DF8000000F072FCDFF87C7648
:100AF000D7E900234146C9B29DF800000C30C0B2CE
:100B000000F0C2FC00208DF8000018F10108DFF8A9
:100B1000441601A8FFF79FFC01AA4146C9B29DF8FF
:100B2000000000F055FC5FF0000A18F10108DFF842
:100B3000401601A8FFF78FFC01AA4146C9B25046F2
:100B4000C0B200F045FC5FF0000B18F10108DFF8BF
:100B50000C1601A8FFF77FFC01AA4146C9B258460E
:100B6000C0B200F035FC5FF0000918F101088DF803
:100B70000080DFF8EC1501A8FFF76DFC01AA9DF8D5
:100B800000104846C0B200F023FC4FF4FA7000F0A9
:100B9000B4FD9DF80100042800F0BA80002000F0A8
:100BA000FDFD002805D12000C0B2002801D0641E40
:100BB00009E0002000F0F2FD002804D12000C0B2BE
:100BC000002800D1E41C012000F0E8FD002805D138
:100BD0002000C0B2032801D0641C09E0012000F00D
:100BE000DDFD002804D12000C0B2032800D1E41E9E
:100BF000FFF712FC4BA101A8FFF72DFC01AAE11C95
:100C0000C9B2782000F0E4FB042000F0C7FD002802
:100C10007AD12000C0B2002805D002280BD006D31C
:100C200003280CD00EE0280000F07EF80AE0300027
:100C300000F086F906E0380000F076F802E00320C4
:100C40008DF8010000255FF0000B00F0FEFBDFF8DF
:100C5000F41401A8FFF7FFFB01AA5946C9B2280006
:100C6000C0B200F0B5FB00261BF1010BDFF8B81491
:100C700001A8FFF7F0FB01AA5946C9B23000C0B283
:100C800000F0A6FB00271BF1010BDFF8A01401A860
:100C9000FFF7E1FB01AA5946C9B23800C0B200F023
:100CA00097FB5FF000081BF1010BDFF8841401A82B
:100CB000FFF7D1FB01AA5946C9B24046C0B200F0C5
:100CC00087FB5FF0000A1BF1010BDFF8681401A835
:100CD000FFF7C1FB01AA5946C9B25046C0B200F0A5
:100CE00077FB002081461BF1010B8DF800B0DFF887
:100CF000481401A8FFF7AFFB01AA9DF80010484671
:100D0000C0B200F065FB03E0C82000F0F6FC40E74D
:100D100007B0BDE8F08F0000503D0000533D0000DB
:100D2000443D00003C0000002DE9F04704005FF066
:100D30000008002700255FF0000A00F086FBD4E9D8
:100D400000233900C9B24046C0B200F09DFB002626
:100D50007F1C3900C9B23000C0B2FFF79FFB4FF4CF
:100D6000FA7000F0CAFC5046C0B2022800F0E380DE
:100D7000962000F0C2FC002000F010FD002856D1A3
:100D80003000C0B2002808D0062810D00C2818D097
:100D9000122820D0182829D032E0D4E900230020DE
:100DA000DFF8D01300F072FFC4E9000128E0D4E9B5
:100DB00000230020DFF8C01300F068FFC4E9000141
:100DC0001EE0D4E900230020DFF8B01300F05EFF3E
:100DD000C4E9000114E0D4E90023DFF8A403DFF83C
:100DE000A41300F053FFC4E9000109E0D4E9002393
:100DF000DFF89403DFF8941300F048FFC4E9000122
:100E000035005FF000085FF00009D4E9002349468F
:100E1000C9B24046C0B200F037FB2E0019F10109FB
:100E20004F463900C9B23000C0B2FFF737FB01208E
:100E300000F0B4FC00284FD13000C0B2002808D028
:100E400006280FD00C2816D012281DD0182824D020
:100E50002BE0D4E900230020CD4900F017FFC4E9BE
:100E6000000122E0D4E900230020CA4900F00EFF6F
:100E7000C4E9000119E0D4E900230020C64900F0CC
:100E800005FFC4E9000110E0D4E90023BC48C349D0
:100E900000F0FCFEC4E9000107E0D4E90023C048EB
:100EA000C04900F0F3FEC4E9000135005FF000081E
:100EB0005FF00009D4E900234946C9B24046C0B2F8
:100EC00000F0E2FA2E0019F101094F463900C9B2CB
:100ED0003000C0B2FFF7E2FA022000F05FFC002809
:100EE0000DD13000C0B2002802D11820060000E069
:100EF000B61F3900C9B23000C0B2FFF7CFFA0320E5
:100F000000F04CFC00280DD13000C0B2182802D1EE
:100F10000020060000E0B61D3900C9B23000C0B2A2
:100F2000FFF7BCFA042000F039FC00287FF41BAF67
:100F30000220824617E7BDE8F0870000C054000099
:100F40002DE9F047040000265FF000095FF000087B
:100F50005FF0000A00F079FA206800F085FE0200D8
:100F60000B004946C9B23000C0B200F08DFA00252E
:100F700019F101094946C9B22800C0B2FFF78EFA3B
:100F80004FF4FA7000F0B9FB5046C0B2022800F0EE
:100F9000C680962000F0B1FB002000F0FFFB002887
:100FA00044D12800C0B2002808D006280AD00C2856
:100FB0000CD012280ED0182817D020E02068401C32
:100FC00020601CE02068401D206018E020680A3086
:100FD000206014E0206800F047FE694A694B00F089
:100FE00055FE00F011FF206009E0206800F03CFE93
:100FF000654A664B00F04AFE00F006FF2060A846F6
:1010000000260027206800F02FFE02000B003900A8
:10101000C9B23000C0B200F037FA45467F1CB9466D
:101020004946C9B22800C0B2FFF738FA012000F0E3
:10103000B5FB002844D12800C0B2002808D00628FB
:101040000AD00C280CD012280ED0182817D020E077
:101050002068401E20601CE02068401F206018E0CF
:1010600020680A38206014E0206800F0FDFD444A42
:101070004A4B00F00BFE00F0C7FE206009E020683C
:1010800000F0F2FD464A474B00F000FE00F0BCFEC7
:101090002060A84600260027206800F0E5FD020039
:1010A0000B003900C9B23000C0B200F0EDF945467E
:1010B0007F1CB9464946C9B22800C0B2FFF7EEF915
:1010C000022000F06BFB00280DD12800C0B20028E0
:1010D00002D11820050000E0AD1F4946C9B2280022
:1010E000C0B2FFF7DBF9032000F058FB00280DD158
:1010F0002800C0B2182802D10020050000E0AD1D74
:101100004946C9B22800C0B2FFF7C8F9042000F070
:1011100045FB00287FF438AF0220824634E7BDE863
:10112000F0870000B848000010550000205500006E
:101130003055000070550000A0550000480EFF1FFC
:101140004C0EFF1F7C550000000EFF1F080EFF1FF6
:10115000100EFF1F40550000505500006055000064
:10116000A8550000180EFF1F440EFF1F200EFF1F82
:10117000885500000000F03F0000144000002440AB
:101180009A9999999999B93FFCA9F1D24D62503F2A
:101190000000F0BF000014C0000024C09999B9BF3E
:1011A0007B14AE47E17A84BF38B5040008250121DD
:1011B000312000F0CEFE0021342000F0CAFE2800CD
:1011C000451EC0B2002814D0200604D501213320CA
:1011D00000F0BFFE03E00021332000F0BAFE012141
:1011E000342000F0B6FE0021342000F0B2FE64008E
:1011F000E5E731BD38B5040008250021312000F0B5
:10120000A8FE0021342000F0A4FE2800451EC0B234
:10121000002814D0200604D50121332000F099FEC7
:1012200003E00021332000F094FE0121342000F07F
:1012300090FE0021342000F08CFE6400E5E731BD13
:10124000010089B2002909D04FF47A510A00110037
:101250004A1E89B20029FAD1401EF1E7704738B51D
:1012600004000D00B5F15000C0B2FFF7C3FF20002D
:10127000C0B2000950F01000C0B2FFF7BBFF14F07D
:101280000F0050F00100C0B2FFF7B4FF31BD70B5E0
:10129000040000252800C0B2082818DAB5F1500073
:1012A000C0B2FFF7A7FF0120FFF7A4FF1020FFF750
:1012B000A1FF002006003000C0B2802805DA20001F
:1012C000C0B2FFF771FF761CF5E76D1CE2E770BD59
:1012D00080B501220121342000F0B4FD012201215A
:1012E000332000F0AFFD01220121322000F0AAFDE1
:1012F00001220121312000F0A5FD0121342000F060
:1013000028FE0021322000F024FE3220FFF798FF53
:101310000121322000F01DFEAE20FFF76BFF002000
:10132000FFF768FF1020FFF765FF4020FFF762FF1F
:101330008120FFF75FFFCF20FFF75CFFA120FFF7C1
:1013400059FFC820FFF756FFA620FFF753FFA8203C
:10135000FFF750FF3F20FFF74DFFD320FFF74AFF75
:101360000020FFF747FFD520FFF744FF8020FFF75D
:1013700041FFD920FFF73EFFF120FFF73BFFDA20C6
:10138000FFF738FF1220FFF735FFDB20FFF732FFB2
:101390004020FFF72FFF2020FFF72CFF0220FFF750
:1013A00029FF8D20FFF726FF1420FFF723FFA4203D
:1013B000FFF720FFA620FFF71DFFAF20FFF71AFF62
:1013C0000020FFF764FF00210020FFF748FF01BD68
:1013D0002DE9F84304000D00160000275FF0000817
:1013E0005FF000094846C0B2305C00282BD0484668
:1013F000C0B2305C203807002000C0B27F2802DB7A
:10140000002004006D1C2900C9B22000C0B2FFF703
:1014100026FF002080464046C0B206280FDADFF8DB
:10142000BC113A00D2B20620424301EB0200414611
:10143000C9B2405CFFF7B8FE18F10108EBE7A41D44
:1014400019F10109CEE7BDE8F18338B50024200089
:10145000C0B2082817DAB4F15000C0B2FFF7CAFED4
:101460000120FFF7C7FE1020FFF7C4FE0020050093
:101470002800C0B2802804DA0020FFF795FE6D1C1A
:10148000F6E7641CE3E731BD2DE9F34F81B00CB4FE
:1014900084B001250020009001240126DDE904012B
:1014A00000F0B2FC00F0D0FD0700380000F0DCFBDB
:1014B00002000B00DDE9040131F0004100F0C8FD3D
:1014C0000022474B00F036FECDE90201002C06D089
:1014D0000A20464397FBF6F004006D1CF6E73A003D
:1014E0009DF820109DF81C0000F03DF8DDE9020198
:1014F00000F08AFC80465FF0060937A29DF82010B4
:101500009DF81C006B1E09FB03F353FA80F0C0B278
:10151000FFF75EFF4FF47A7B5FF0000ABAF1030F2A
:101520000FDA0A209BFBF0FB98FBFBF030302D49D3
:1015300001F80A0098FBFBF00BFB10881AF1010A76
:10154000ECE7284A002002F80A009DF820109DF8D8
:101550001C0009FB05F959FA80F0C0B2FFF738FF0B
:1015600009B0BDE8F08F2DE9F04705000E00170027
:101570005FF0000901245FF00108002F00D57F42D1
:10158000002C08D00A2000FB08F897FBF8F00400B4
:1015900019F10109F4E75FF0000ACA450FDA0A20E1
:1015A00098FBF0F897FBF8F030300E4901F80A008C
:1015B00097FBF8F008FB10771AF1010AEDE7094AEA
:1015C000002002F80A003100C9B22800C0B2FFF7BB
:1015D000FFFEBDE8F08700002E000000B8480000C4
:1015E00000408F404C0EFF1F62B38B0708D0521E85
:1015F00011F8013B00F8013B00F024808B07F6D185
:10160000830740F0208000BF103A07D330B4B1E820
:101610003810103AA0E83810F9D230BC530724BF74
:10162000B1E80810A0E8081044BF51F8043B40F8A6
:10163000043BD20724BF31F8022B20F8022B44BF11
:101640000B7803707047121F17D35B0009D151F854
:10165000043B20F8023B1B0C121F20F8023BF6D281
:101660000BE051F8043B00F8013B1B0A20F8023B59
:101670001B0C121F00F8013BF3D238BF121D521E83
:1016800024BF11F8013B00F8013BF8D8704730B493
:10169000002513E050F8042BD30744BFA9F1010340
:1016A0009A18091F042942F8045BFAD213468C07E2
:1016B00044BF15809B1CC90748BF1D7050F8041B10
:1016C0000029E7D130BC704710B50400002C13D0BE
:1016D000B4F1807F03D329210E4800F011FE0E489B
:1016E000002101600D490C6000210D4A11600521A7
:1016F00001600168C903FCD510BD10B504002000CD
:10170000441E002804D007480068FFF7DDFFF6E715
:1017100010BD00007052000010E000E014E000E096
:1017200018E000E0580EFF1F38B50400200040B25A
:1017300008280EDA244D00220021200040B2285C47
:1017400000F080FB0321200040B2285C00F090FEF6
:1017500015E0082004002000441E40B200280ED0EE
:10176000194D00220021200040B2285C00F06AFBE5
:101770000321200040B2285C00F07AFEEBE731BD87
:1017800010B504001048210049B2405C00F039FC5B
:10179000002801D1002000E0012010BD10B5040098
:1017A000200040B2FFF7ECFF00280AD10A20FFF723
:1017B000A4FF200040B2FFF7E3FF002801D1002082
:1017C00000E0012010BD0000B40BFF1F38B504007D
:1017D0000D00200040B2002803D0022864D048D376
:1017E0007DE0DFF86C04016851F080710160280031
:1017F00040B200280BD0022815D00ED304281ED0EA
:1018000017D3062827D020D307282AD02FE04FF45B
:101810008061412000F008FE2AE04FF48061422000
:1018200000F002FE24E04FF44071052000F0FCFDC2
:101830001EE04FF44071062000F0F6FD18E04FF472
:101840008061642000F0F0FD12E04FF480616520BB
:1018500000F0EAFD0CE04FF48061662000F0E4FD4A
:1018600006E04FF48061672000F0DEFD00E036E026
:1018700035E0DFF8DC03016851F0007101602800F9
:1018800040B2002802D0012806D00BE04FF440718E
:101890000C2000F0C9FD06E04FF440710D2000F06F
:1018A000C3FD00E01BE01AE0DFF8A803016851F077
:1018B00080710160280040B2002802D0012806D0C3
:1018C0000BE04FF440710A2000F0AEFD06E04FF44B
:1018D00040710B2000F0A8FD00E000E0FFE731BD03
:1018E0002DE9F84F04000D0016001F00200040B243
:1018F000002811D0200040B2012803D0200040B2BF
:10190000022803D1280040B2022805DB40F28511ED
:10191000DFF8440300F0F4FC290049B2200040B293
:10192000FFF754FFDFF83403D0F800904FF47A70DB
:1019300000FB09F94846000CB0FBF6FA5FF0000B1B
:10194000504680B250FA0BF0012802DB1BF1010B6C
:10195000F6E75846C0B2082805DB4FF4D071DFF82F
:10196000F80200F0CDFC484630FA0BF0B0FBF6F080
:10197000010089B2DFF8E82223005BB242F82310AD
:10198000210049B2002903D0022915D00AD31DE055
:10199000010089B2491C01FB07F16422B1FBF2F19D
:1019A000884613E0010089B2491C01FB07F164225B
:1019B000B1FBF2F1884609E0010089B2491C01FB44
:1019C00007F16422B1FBF2F18846FFE7DFF89412D9
:1019D000220052B251F822202B005BB202EBC3026C
:1019E00023005BB251F82330AC464FFA8CFC03EB7A
:1019F000CC03DB6833F00403D360220052B251F809
:101A000022202B005BB202EBC3022823D3605A468C
:101A1000D2B212F0070252F0080223005BB251F872
:101A200023301A60020092B223005BB251F82330D7
:101A30009A60002223005BB251F82330DA6422005E
:101A400052B251F822202B005BB202EBC302434694
:101A50009BB21361002223005BB251F823104A604D
:101A6000BDE8F18F2DE9F04180460C0015000027FC
:101A7000404640B2002811D0404640B2012803D071
:101A8000404640B2022803D1200040B2022805DBC4
:101A90004FF4F371DFF8C00100F032FC404640B271
:101AA000002803D0022813D009D31AE0652D05D3EE
:101AB0004FF4F671DFF8A00100F022FC11E0652D73
:101AC00005D34FF4F871DFF8900100F019FC08E03D
:101AD000652D05D34FF4FA71DFF87C0100F010FC9E
:101AE000FFE7DFF87C01414649B250F8210041464A
:101AF00049B2002903D0022911D008D317E0411CB4
:101B000001FB05F16422B1FBF2F10E000FE0411C74
:101B100001FB05F16422B1FBF2F10E0007E0411C6C
:101B200001FB05F16422B1FBF2F10E00FFE7DFF8E3
:101B30003411424652B251F82210220052B201EB47
:101B4000C2010E61BDE8F08110B50400200040B272
:101B5000012808D0200040B2022804D040F2DB2146
:101B60003D4800F0CDFB200040B2012802D0022801
:101B700010D01FE03648016851F0007101604FF449
:101B8000C061082000F050FC4FF4C061092000F053
:101B90004BFC14E02F48016851F0807101604FF454
:101BA000C0610A2000F040FC4FF4C0610B2000F03F
:101BB0003BFC04E040F21331274800F0A1FB294828
:101BC000210049B250F82110496D51F00401220062
:101BD00052B250F822205165210049B250F821102C
:101BE000D1F8801051F00801220052B250F82220A2
:101BF000C2F880100021220052B250F82220D16495
:101C00004FF6FF71220052B250F82220916021005D
:101C100049B250F82110D1F8801051F00101220092
:101C200052B250F82220C2F88010210049B250F878
:101C30002110496D51F00101220052B250F82220CA
:101C400051650021220052B250F82200416010BDBF
:101C50003C8004403080044010530000600EFF1FA1
:101C6000380EFF1F200BFF1FC11768B14840401AF4
:101C7000B0FA80F29040D21CC907C2F5846241EAF2
:101C8000025202EBD0214005704703FC70B44FF0C4
:101C9000004591EA030F40F1E3816B40841A71EB38
:101CA000030604D26E40001BB141121973414FF478
:101CB000001C1CEB410F34BF7CEB430683E00C0D92
:101CC000A4EB1356362E00F37C80012E45EAC32385
:101CD00041DC43EA525312BFD20292025B08240550
:101CE00045EAC12141EA5051D2EBC020994125D4A7
:101CF00007D1B0FA80F610FA06F162D00020203643
:101D000008E0B1FA81F6B140C6F1200220FA02F2F1
:101D10001143B0404FEAF474B4EB465434F001067A
:101D20004FEA74040AD8D6F50016760D04F0004484
:101D3000F04061FA06F25040F1404840C00A40EAE3
:101D4000415021F0004128BF5FEA500550F10000EA
:101D500044EBD12135E0DB0A45EAC121C90AB6F1DD
:101D600020050EDD42EA0242120CC5F1200603FAFC
:101D700006F6EB4042EA06056D42984161F100012A
:101D80000DE062FA06F5F240554063FA06FC82EA7D
:101D90000C02F3405A406D42904161EB030111F493
:101DA000801F05D1641E620502D06D00404149418B
:101DB00021F48011430875F1004350F1000041EB1C
:101DC000045170BC70471CEB410F15D223F0004347
:101DD00052EA43060BD04FEA4C0CBCEB410F04D83F
:101DE0000C0D661E342EB7DDEBE7801A994150EAE0
:101DF000410608BF0021E4E708BF1CEB430F28BFE2
:101E00006FF00001DDE7FC03C1F30A5340F2FE323C
:101E10009B1A14DDD3F120034FEAE17208DDC902F9
:101E200041EA505141F00040D8408018504070477E
:101E300003F2E13010B1D24382F00040704700203D
:101E400070470000F8B504000D0016004FF48071D3
:101E50002000C0B200F0E8FA280040B2002812D1F9
:101E600077482100C9B2491150F821102200D2B29E
:101E7000521150F822004269012314F01F008340E0
:101E80009A434A6138E001216D4A2000C0B24011F6
:101E900052F820002300DBB25B1152F823305B695B
:101EA00014F01F0711FA07F73B4343613000C0B23B
:101EB000002811D12000C0B2401152F82000036860
:101EC00014F01F00814033EA01012000C0B240112C
:101ED00052F8200001600FE02000C0B2401152F81B
:101EE0002000036814F01F00814019432000C0B295
:101EF000401152F820000160F1BD30B40A0052B226
:101F0000002A12D14E4A0300DBB25B1152F8233093
:101F10000400E4B2641152F824205469012510F041
:101F20001F029540AC435C6111E0454A0300DBB2FF
:101F30005B1152F823300400E4B2641152F82420FB
:101F40005469012510F01F0295402C435C6130BCA0
:101F5000704770B504000D00394E2000C0B240112A
:101F600056F82000406914F01F01C840C00703D490
:101F70006321344800F0C4F92800C0B2002811D110
:101F80002000C0B2401156F820000168012214F070
:101F90001F00824091432000C0B2401156F820003B
:101FA000016010E02000C0B2401156F82000016826
:101FB000012214F01F00824011432000C0B24011E2
:101FC00056F82000016070BD38B504001C4D20009B
:101FD000C0B2401155F82000406914F01F01C840FC
:101FE000C00703D47B21174800F08AF92000C0B253
:101FF000401155F82010012214F01F008240CA60E1
:1020000031BD38B504000E4D2000C0B2401155F866
:102010002000406914F01F01C840C00703D58C217F
:10202000084800F06DF92000C0B2401155F82000BA
:10203000006914F01F04E04010F0010032BD000000
:102040002C0BFF1F44530000002848BF404270473C
:1020500070B44FF0004591EA030F7FF51FAE6B405F
:10206000841A71EB030603D2001BB14112197341AC
:102070004FF4001C1CEB410F34BF7CEB430442E0E7
:102080000C0DA4EB1356352E4FDC45EAC323DB0AB7
:1020900045EAC121C912B6F120050DDD63FA05F646
:1020A000EB4086EA0305124218BF45F00105C0184F
:1020B00051F100010CD213E062FA06F5F2405540EE
:1020C000F3415A40B340F3405A408018594107D376
:1020D00049085FEA30005FEA350528BF45F0010591
:1020E00001F58011420875F1004250F1000041EB0A
:1020F00004514E0016F5001F70BC38BF7047002019
:10210000090D090570471CEB410F10D252EA430636
:102110000BD0BCEB410F05D80C0DAB43661E342E23
:10212000B6DD02E0AB438018594170BC704770BC0B
:1021300070470000B0B581EA030C0CF0004C40F28F
:10214000FF7515EA11541DBF15EA1357AC42AF4293
:1021500039E0E41923EA455343F48013C90241F0FE
:10216000004141EA505EC7021100A7FB02020028AD
:102170004FF00000EEFB01204FF00001E3FB0721D0
:1021800018BF42F00102401800214941E3FB0E0153
:10219000A4F580640F0302D252004041494154F13A
:1021A00001046CDD470872F1004250F1000051EB70
:1021B0000451A1F580115CBF41EA0C01B0BD4CEAAD
:1021C00005510020B0BD05EA1357AC4214BFAF4221
:1021D00041E050EA410E1CBF52EA430E02E0614664
:1021E0000020B0BD24423C441BD15FEA070EF6D06C
:1021F000090302BF01460020AEF1140EB1FA81F7C7
:10220000AEEB070401FA07FE0C37C7F1200100FA14
:1022100007F7C8404EEA000E23EA455343F4801303
:10222000A2E733F00043B3FA83F704BFB2FA82FEA9
:1022300077440B3FE41BB7F1200E2FBF02FA0EF3D9
:10224000BB40C7F1200E22FA0EFE38BF43EA0E0350
:10225000BA40641C82E750EA410E14BF52EA430EB2
:102260006FF000014FF4001717EB430F8ABF1946B8
:1022700017EB410FB5E74CEA05510020B0BDD4F192
:102280000104B4F120070FDAC4F12007520828BF77
:1022900042F0010210FA07F501FA07F7E1BF2A43FD
:1022A000E0403843E1400FE0352C98DCC7F12004D2
:1022B00052EA400220FA07F218BF42F0010231FA56
:1022C00007F0A1400A43002172F1004250F10000E2
:1022D00051EB0C01B0BD0000DFF800F06D0CFF1FEA
:1022E000DFF800F0970CFF1FBFF34F8F46490A68D5
:1022F00012F4E062454802430A60BFF34F8FFEE7E5
:1023000038B504000D00002000F0EAF82A00210092
:102310003F4800F025F9002000F002F94FF47A70F0
:10232000FFF7EBF9F2E738B504000D00210049B2E0
:10233000012000F024FA200032BD10B50024042052
:10234000FFF7F2F90420FFF729FA002842D1002014
:1023500000F0C6F80420FFF721FA012801D101207E
:102360000400002000F0DCF82A4800F0F9F84FF4EF
:10237000FA70FFF7C2F92000C0B20128EAD10420A8
:10238000FFF70CFA0028E5D10420FFF707FA002830
:1023900006D1002000F0C4F86420FFF7AEF9F3E79F
:1023A0000420FFF7FBF9012806D1002000F0B8F85F
:1023B0003220FFF7A2F9F3E7174800F0D1F8FFF752
:1023C0008BFF6420FFF799F90020FFF789FFFFF7E3
:1023D0008BFFBFE710BD10B510480468012000F066
:1023E0007FF8012000F09CF80D492200D2B20F20A6
:1023F00042430A442100C9B20A4800F0B1F84FF440
:102400007A70FFF77AF9ECE70CED00E00400FA05CA
:1024100038540000FC5400006C54000004ED00E04F
:102420001804FF1F3452000030B42B4B1C684FF4CB
:1024300000750200D2B2520995402C431C60274B14
:102440000200D2B2521153F82240012510F01F02AF
:102450009540C4F8A0500200D2B2521153F8222085
:102460000300DBB213F01F0342F8231030BC7047A7
:1024700030B4194B1C684FF400750200D2B25209F7
:1024800095402C431C60154B0200D2B2521153F8F8
:102490002240012510F01F029540C4F8A05031F4ED
:1024A000E0610200D2B2521153F822200400E4B2DB
:1024B00014F01F0452F8242012F4E06211430200C9
:1024C000D2B2521153F822200300DBB213F01F03E3
:1024D00042F8231030BC704738800440880BFF1F3F
:1024E00010B50400200040B2042808DA01220121BE
:1024F0001A4823005BB2C05CFFF7A4FC0FE0042085
:1025000004002000441E40B2002808D0012201210E
:10251000124823005BB2C05CFFF794FCF1E710BDEA
:1025200010B50400200040B2042806DA0B48210050
:1025300049B2405CFFF748FD0DE004200400200094
:10254000441E40B2002806D00448210049B2405C35
:10255000FFF73AFDF3E710BD00000000BC0BFF1FC2
:102560000EB4C0B5024603A800210190009101AB52
:102570000121044878440C3000F02EF906BC5DF8C7
:1025800010FB00BF552F00002DE9F84304000D009B
:10259000200040B2002808D0022828D016D30428F2
:1025A00047D035D3052855D065E0DFF8140201681F
:1025B00051F4806101604FF440716620FFF734FFF1
:1025C0004FF440716720FFF72FFF54E0DFF8F00170
:1025D000016851F4006101604FF440718120FFF700
:1025E00023FF4FF440718020FFF71EFF43E0DFF828
:1025F000D001016851F4805101604FF440716320B3
:10260000FFF712FF4FF440716220FFF70DFF32E039
:10261000DFF8AC01016851F4005101604FF44071E2
:102620005020FFF701FF4FF440715120FFF7FCFEEF
:1026300021E0DFF89001016851F4806101604FF4FE
:1026400040714E20FFF7F0FE4FF440714F20FFF72E
:10265000EBFE10E0DFF86C01016851F400610160ED
:102660004FF440718920FFF7DFFE4FF4407188205E
:10267000FFF7DAFEFFE7DFF85061200040B256F8BE
:102680002000C07810F0F300210049B256F8211064
:10269000C870200040B256F820008078210049B26E
:1026A00056F821108870200040B2002803D0200086
:1026B00040B2012806D1DFF8140107684FF47A70A0
:1026C000474305E0DFF8080107684FF47A70474395
:1026D0002801B7FBF0F8404680B2B0F5005F02DB9E
:1026E00041F6FF708046B7FBF5F9404680B2B9EB82
:1026F0000019484680B2202803DBDC213548FFF76B
:10270000FFFD200040B256F82000007810F0E000F5
:10271000C8F304210143220052B256F8222011705E
:10272000210049B256F8211081F80180210049B2F8
:1027300056F82110897A11F0E00119F01F020A43BE
:1027400023005BB256F823309A72220052B256F838
:102750002220127C52F0880223005BB256F823300C
:102760001A74220052B256F82220D27852F00C028B
:1027700023005BB256F82330DA70BDE8F183124AC9
:1027800003005BB252F823301B791B06F7D5030018
:102790005BB252F82320D171704770B504000D0070
:1027A00016003000461E002809D095F900000100EF
:1027B00049B2200040B2FFF7E2FF6D1CF1E770BDA7
:1027C00034800440288004409C0BFF1F580EFF1FDC
:1027D000600EFF1FAC5300002DE9F0439FB00FF6D1
:1027E000A836269CDFF804898DF83B40029100242E
:1027F0000B944FF0FF37044691461D460AE019F846
:10280000011B0298A0470028029000F0A1800B98BD
:10281000401C0B9099F8000050B12528EFD1002101
:102820000022059106920791089209910A9203E00D
:102830000B98A0E041F0010119F8010F2028F9D010
:1028400023280CD02B2804D02D2805D0302809D0DF
:1028500080E041F00201EFE741F00401ECE741F0D4
:102860000801E9E741F01001E6E70D920AE00D9852
:10287000404505DA00EB800002EB4002303A0D9251
:1028800009F1010999F80020A2F130000A28EED3DD
:1028900099F800002E2818BF0C9726D119F8010FBF
:1028A0002A2808D12868286009F1010950F8042B6A
:1028B00028600C9219E02D280CBF09F101090020B5
:1028C00000220C920BE040B90C9A424505DA02EB6B
:1028D000820203EB4203303B0C9309F1010999F8A2
:1028E0000030A3F130020A2AEDD3ADF8381030469B
:1028F00099F8001000F07CFD08B119F8010B8DF873
:102900003A009DF83A00682805D199F80000682837
:102910000CD1622106E06C2804BF99F800006C28F5
:1029200004D171218DF83A1009F1010910A8049021
:102930002A4619F8013B6946204600F05CF838B990
:1029400010AA6946204600F086F900287FF562AF9C
:10295000384610E02A2888D12A682A6052F8040BE9
:102960002A6000280D9003D540420D9041F00401EB
:1029700009F101098CE71FB0BDE8F083622820D07F
:10298000682811D06A2803D06C2827D0712825D157
:102990000868C01D20F007000860D0E90023083057
:1029A0000860194610467047002A0A680A601068D5
:1029B00003D0121D0A6000B217E0121D0A6080B237
:1029C00017E0002A0A680A60106803D0121D0A6026
:1029D00040B20AE0121D0A60C0B20AE0002A0A688A
:1029E0000A60106803D0121D0A60C1177047121DDB
:1029F0000A600021704770B51C460D46B4F12500F1
:102A00002E69114600F015812038022863D9133849
:102A100040D00B3816D0401E1ED0401E02285AD976
:102A2000001F19D0401F00F08180401E32D0401E90
:102A300000F0CB80C01E00F0DA80801E2AD0C01EBD
:102A400028D0FCE06869421C6A610A680A6052F892
:102A5000043B0A603354FCE095F83A000122FFF78A
:102A60008DFFC5E90001002904D56869411C696131
:102A70002D220DE0288F810704D56869411C69610A
:102A80002B2205E0C00721D56869411C696120221D
:102A900032541BE095F83A000022FFF76FFFC5E9BA
:102AA000000195F83800010710D5D5E90023002B67
:102AB00008BF002A0AD044F02000782806D16869AF
:102AC00030213154401C421C6A61345421466869EB
:102AD0003044E86087E00868C01D20F00700086007
:102AE000D0E9002308300860C5E90023D5E90001DA
:102AF000C80F04D06869411C69612D220DE0288F40
:102B0000810704D56869411C69612B2205E0C00773
:102B100004D56869411C69612022325468693044D7
:102B2000E8602146284600F0C4F992E005F13A0237
:102B3000507820B14FF0FF340FF6540062E0107867
:102B4000622808D0682824D06A2812D06C282ED099
:102B500071280ED02BE00A680A6052F8040B0A6054
:102B600020B94FF0FF340FF640004BE0E96A0170E6
:102B70006FE00A680A6052F8040B0A6020B94FF04F
:102B8000FF340FF624003DE0EA6AD317C0E90023C2
:102B90005FE00A680A6052F8040B0A6020B94FF03F
:102BA000FF340FF604002DE0E96A018051E00A6865
:102BB0000A6052F8040B0A6020B94FF0FF340FF29C
:102BC000E8701FE0E96A016043E00A680A6052F8B1
:102BD000040B0A60002120F0000221F0FF33C5E958
:102BE0000023EE607821284600F0BBF831E0086849
:102BF000086050F8044B0860EC603CB94FF0FF34BB
:102C00000FF2BC7000F000FC201A70BD2E6B002E7D
:102C100004D5204600F018FC044608E032460021A6
:102C2000204600F02DFC002814BF041B3446AC6184
:102C30000FE06869411C69612522325409E0696925
:102C4000481C686125227254210002D0431C6B612C
:102C50003454002070BD2DE9FC410F4606469046D5
:102C60007A6B7869396ABC6A121AB869521A796A39
:102C7000121AF869521A121A97F83800141B4107F1
:102C80000FD42020002C8DF800000ADD25460123FA
:102C90006A463946304600F05FFB00285DD16D1E64
:102CA000F5D17B6942463946304600F055FB002895
:102CB00053D130208DF800003D6A002D09DD01233D
:102CC0006A463946304600F047FB002845D16D1E64
:102CD000F5D1BB69FA683946304600F03DFB002863
:102CE0003BD130208DF800007D6A002D08DD0123E6
:102CF0006A463946304600F02FFB70BB6D1EF6D198
:102D0000F868B969FB6942183946304600F024FB7F
:102D100018BB30208DF80000BD6A002D08DD0123AE
:102D20006A463946304600F017FBB0B96D1EF6D141
:102D300097F8380041070DD52020002C8DF80000B1
:102D400008DD01236A463946304600F005FB20B90C
:102D5000641EF6D10020BDE8F6814FF0FF30BDE8DB
:102D6000F6812DE9FC4307466F293E6908BF082418
:102D700005D041F02000782814BF0A2410243C25F7
:102D8000D7E90023642918BF69299046994605D1DF
:102D9000002B03D5D8F1000869EB4909B9F1000F00
:102DA00008BFB8F1000F1FD1386BE8B9082C4CD11F
:102DB00097F83800010748D530203B2586F83B00BE
:102DC00043E000280ED597F8380000F014001028D2
:102DD00008D17B6B7969386A5B1A1B1A9A1A002A28
:102DE000C8BF3A62BDE8F3838DF8001040464946FB
:102DF0002246E31700F070FB3032D0B26D1E3A2845
:102E0000019504DB9DF80000A0F151018A1872556C
:102E1000404649462246E31700F05EFB80465FEAE3
:102E2000010908BFB8F1000F03D0F8687119884292
:102E3000DCD3082C09D197F83800010705D5705D5F
:102E4000302802D06D1E30207055C5F13C02BA61A9
:102E50007119F960386B8242B3DA821A3A624FF61E
:102E6000EF70398F01403987BDE8F3832DE9D043F6
:102E700006460F4614464FF00008DFF8749212E041
:102E8000E00707D542464B4630463946FFF752F930
:102E900006460F464046494642464B46FFF74AF92A
:102EA000641080468946002CEAD130463946BDE898
:102EB000D0832DE9F047064689468EB0D6E9000159
:102EC000CDE9020104AC306B002802D50620306346
:102ED00005E001BF49F02000672801213163D6E9F0
:102EE000002358004015401C0DD119030BD0A9F147
:102EF000610103201A29B06102D20FF2E04110E013
:102F00000FF2DC410DE059004915491C0ED11803A0
:102F10000CD1A9F1610103201A29B06116D30FF277
:102F2000C841F0680322FEF75FFBDBE023F00047B7
:102F3000B7F5801F1046194622F000050DD2002279
:102F4000002F08BF002D019203D116E00FF294412B
:102F5000E7E701AA00F0D8FB08E06648664900EB05
:102F6000175001906548034010461943019B644D7A
:102F700047F29752534393FBF5F2C6E9000120F064
:102F8000000331F0004104BF002B002300F0A280B9
:102F9000DDE90240019220F00045D2F1070204DD94
:102FA00020462946FFF762FF0AE0524200205549B9
:102FB000FFF75CFF02460B462046294600F0DCFB8B
:102FC000044649F0200ABAF1660F306B06BF019D36
:102FD0000A3506252D18142DC8BF14253020884623
:102FE0008DF810000DF11107002D33DD204641460C
:102FF00000F0E6FC01460A4607F1080304200A2710
:10300000B2FBF7F707EB870EA2EB4E02303203F864
:10301000012C0A22B7FBF2F202EB820EA7EB4E075D
:103020003037401E03F8027DE9D1083D002D03F141
:103030000807D9DD084600F0D7FC02460B462046BB
:103040004146FFF705F800222F4BFFF773F80446BF
:103050008846CBE70DF111003F1A0DF1110404E091
:103060000198401E7F1E0190641C20783028F7D004
:10307000BAF1660F02D10198401C04E0BAF1650F65
:103080000CBF01200020336BC3189F42B8BF7B1ECA
:10309000002B1ED4BB4204DAE05C3528A8BF3920DF
:1030A00000DA30201946621E02EB010800E05B1EC8
:1030B00018F80179491E8742F9D0392802D1605C9D
:1030C000401C6054002904D50198401C14465B1C28
:1030D0000190019800B200901BB22246494630464A
:1030E00000F014F80EB0BDE8F0870000CBCCCC0C9B
:1030F0000000244002FCFFFF0000E03FFFFF0F80C4
:10310000A08601000000F03F84D797412DE9F847E1
:1031100083B005468A469146984600F073FCB8F1A4
:10312000000F406A2F6B067803DC4FF001080FF2A6
:10313000BC294AF02000BDF93040662808BF641C55
:1031400013D0672840F08F8014F1040F7ADBBC4263
:1031500078DA95F83800641C010702D4B845B8BF86
:10316000474620B23F1A48BF00270FFA84FAE868A2
:10317000A969BAF1000F23DC4A1C30234354002F05
:1031800003DC95F83800010702D5E8688654521C24
:1031900017EB0A0FB8BF7C4224B2E71960424745DB
:1031A000B8BFB846AA6168620FFA88F4EC61E868B3
:1031B000AB69224649461844FEF716FA3F1B18E051
:1031C00022B29045084416DA42464946FEF70CFA08
:1031D000A8694044A861AAEB0801002F696203DCDA
:1031E00095F838100A0704D5E9680E54E869401CC0
:1031F000E861AF6299E04946FEF7F6F9A869002F49
:103200005044A8EB040803DC95F838100A0702D5EF
:10321000E9680E54401CA8610FFA88F08742EB68F9
:10322000A869B8BFB8460FFA88F209EB0A0118443A
:10323000FEF7DAF9A9690FFA88F00144A961381A92
:10324000686272E0B84504DA95F838100A0758BF8A
:1032500047467F1E48BF0027BAF1670F0CBF4FF0EB
:10326000650A4FF0450AA969EB68481CA861002F60
:1032700019F8012B5A5403DC95F838100A0719D5B0
:10328000E968431CAB610E54002F13DDA8F1010661
:1032900030B28742D5F80CC0B8BF3E4632B249467C
:1032A0000CEB0300FEF7A0F9A86936B23018BF1B7B
:1032B000A8616F62E868A9690844002C80F800A042
:1032C00003D42B224270811C03E02D214170644203
:1032D000811C00206A460AE023460A2493FBF4F48A
:1032E00004EB8406A3EB460302F8013B401C24B226
:1032F000002CF1DC012806DC4AF02002652A04BF1C
:10330000302201F8012B48B9302001F8010B07E009
:10331000401E1DF80030303301F8013B0028F7DC77
:10332000EA68A8691044091AE96195F8380000F0C4
:10333000140010280DD16A69A969686A8A18E969B8
:103340008218A86A8A188218686B8242BCBF821AE7
:103350002A6204B0BDE8F087F8B505460E46174668
:103360001C46002074B117F8011BB068A847B06074
:1033700030B1F06A401CF0620020641EF3D1F2BD4F
:103380004FF0FF30F2BD0000686A6C747A4C0000A8
:103390007072696E74665F733A20256E206469737B
:1033A000616C6C6F776564007072696E74663A2048
:1033B00062616420256E20617267756D656E7400B0
:1033C0007072696E74665F733A206261642025735F
:1033D00020617267756D656E740000006E616E002D
:1033E0004E414E00696E6600494E460030000000B6
:1033F000C9B202788A421AB11CBF10F8012FF9E74E
:1034000018BF00207047000080B500B906A005492C
:103410000B681BB122220021984701E000F0F6FA68
:10342000222002BD640EFF1F636F6E7374726169A8
:103430006E742068616E646C65723A20626164200B
:103440006D6573736167650000F10103810704D046
:1034500010F8011B820781B1FAD10268A2F1013193
:10346000914311F0803104BF50F8042FF6E709BAF8
:10347000B1FA81F100EBD100401CC01A7047000086
:10348000C9B2830706D0521E22D310F8013B9942DD
:10349000F7D11FE0083A13D302F1040241EA0121F7
:1034A00041EA014150F8043B121F21BF4B40A3F1F8
:1034B000013C2CEA030C1CF0803FF3D0C9B2001F82
:1034C000083210F8013B521E28BF91EA030FF8D8CA
:1034D00018BF0120401E7047BBBBE1B1B2F5803F71
:1034E00080F07E80022A1ED98C46B1FBF2F102FBED
:1034F00011C31B0443EA1043B3FBF2FC02FB1C3371
:1035000080B240EA0343B3FBF2F002FB103240EA20
:103510000C4000237047022A05D98446B0FBF2F024
:1035200002FB10C270474AB105D100F00102490800
:103530005FEA3000704700220023704700F06ABA4B
:103540000B000200002100207047904271EB030C39
:10355000F6D3B3F5803F2FD2F0B5B3FA83F7B1FAC3
:1035600081F4A7F10F0E3D1B5340CEF1200602FA65
:103570000EF2F3415340B5F10F0746D80F3C2C44EF
:103580004140C4F12006A040F1414140B1FBF3F6B7
:1035900003FB1611A2FB0645001BA94102D2761EB1
:1035A0008018594180EA010221FA0EF362FA0EF204
:1035B00000215A403046F0BD30B4B1FBF3FC03FBB0
:1035C0001C11A2FB0C45001BA94103D2ACF1010C5C
:1035D0008018594130BC02460B46604600217047B6
:1035E000B2F1807F65D3F0B5B2FA82F7B1FA81F417
:1035F000C7F10F063D1B22FA06F307F1110EF24147
:1036000020355A40B5F10F07B8D94140C4F1200622
:10361000A040F1414140B1FBF3FC03FB1C11A2FBB4
:103620000C45001BA94103D2BCF1010C8018594183
:103630000F2F12D30F3FC90341EA5041B1FBF3F6FC
:1036400003FB1611A2FB0645D4EBC030A94102D200
:10365000761E8018594146EACC3C07B34140C7F179
:103660002006B840F1414140B1FBF3F603FB1611CF
:10367000A2FB0645001BA94102D2761E80185941C3
:1036800080EA010221FA0EF3C7F1200462FA0EF279
:103690000CFA07F05A402CFA04F13043F0BD80EAEE
:1036A000010221FA0EF3002162FA0EF260465A403E
:1036B000F0BD8C46B1FBF2F102FB11C31B0243EAE1
:1036C0001063B3FBF2FC02FB1C331B024CEA00202C
:1036D00043EA1063B3FBF2FC02FB1C331B024CEA0F
:1036E000002043EA1063B3FBF2FC02FB1C331B0215
:1036F0004CEA002043EA1063B3FBF2FC02FB1C32ED
:103700004CEA00200023704710B5144600F002F880
:10371000226010BDC1F30A5343B14A0012F5001FE5
:1037200028D2A3F2FE32A1EB0251704750EA410CBD
:1037300020D001F0004C31EA0C01B1FA81F204BF53
:10374000B0FA80F3D2180B3AB2F120032CBF00FA82
:1037500003F1914041EA0C013EBFC2F1200C20FA76
:103760000CF319439040524240F2FD33D21A01EB60
:103770000351704700227047F0B540F2FF7581EAAF
:10378000030C0CF0004C15EA11541DBF15EA135739
:10379000AC42AF42E5E0BC41C1F31301C3F31303F4
:1037A000801A994143F4801304D2641E40004941B9
:1037B00080185941C90241EA5051B1FBF3F603FBAD
:1037C0001611A2FB0675D7EBC020A94102D2761EC6
:1037D00080185941C90241EA5051B1FBF3FE03FB85
:1037E0001E11A2FB0E75D7EBC020A94103D2AEF18A
:1037F000010E80185941890241EA9051760546EA46
:103800008E2EB1FBF3F603FB1611A2FB0675D7EB68
:103810008020A94102D2761E80185941C90241EA8E
:1038200050514EEA060EB1FBF3F603FB1611A2FB54
:103830000675D7EBC020A94102D2761E80185941E7
:10384000C90241EA5051B1FBF3F703FB1711A2FB88
:103850000735D3EBC020A94167F100070CBF004238
:1038600047F0010766F3D5274FEA1E31B80814F573
:10387000806412DDBD0775F1004250EB0E5051EB34
:10388000045111F5801F5CBF41EA0C01F0BD4CF002
:103890007F6141F0E0410020F0BDBD076D0840EAC6
:1038A0000E5041F48011D4F10104B4F120060ADA7B
:1038B000C4F120060200E04001FA06F3E14018439B
:1038C000B24015430EE0342C13DCC6F1200445EA67
:1038D00040056D0820FA06F2154321FA06F0A140D2
:1038E0000D43002175F1004250F1000051EB0C0135
:1038F000F0BD00205FEA0C01F0BDCFB992185B412A
:10390000B3FA83F704BFB2FA82F6BF190B3FB7F1DF
:1039100020062FBF02FA06F3BB40C7F1200622FAA9
:1039200006F638BF3343BA401CB1E419641E33E7CE
:103930007F4231F00041B1FA81F404BFB0FA80F661
:10394000A4190B3CB4F120062FBF00FA06F1A140E8
:10395000C4F1200620FA06F638BF3143A0403C1BD4
:103960001AE7AC421ABF05EA1357AF4212E050EA19
:1039700041061CBF52EA4306BFE750EA4107304602
:1039800061461CBF41EA0551F0BD52EA430C08BF35
:10399000C143F0BD00204FF4001616EB410F98BF55
:1039A00016EB430F08BF16EB410F24BFC14305E0E0
:1039B00016EB430F0CBF61464CEA0551F0BD000009
:1039C000400D491840EA81200CD2490DA1F58061D3
:1039D000491C40F0004005DBD1F11F0154BFC84035
:1039E000C017704700207047014648B1B0FA80F117
:1039F0008840C91CC1F58461090501EBD02140054F
:103A00007047000000487047C00BFF1F012000F006
:103A100003B8000070470000202109032631182058
:103A2000ABBEF9E700B0034000B00B40000000005F
:103A30000000000000000000000000000000000086
:103A4000000000000000000000004E6F6E4D61732A
:103A50006B61626C650000000048617264466175CC
:103A60006C740000000000004D656D4D616E616773
:103A7000656D656E7400004275734661756C740007
:103A800000000000000055736167654661756C7445
:103A90000000000000000000000000000000000026
:103AA0000000000000000000000000000000000016
:103AB0000000000000000000000000000000000006
:103AC00000000000000000000000000000000000F6
:103AD00000535643616C6C000000000000000000C1
:103AE00044656275674D6F6E69746F720000000007
:103AF0000000000000000000000000000000506511
:103B00006E645356000000000000000000537973FB
:103B10005469636B0000000000000000444D413018
:103B20000000000000000000000000444D41310092
:103B300000000000000000000000444D4132000081
:103B4000000000000000000000444D413300000070
:103B50000000000000000000444D4134000000005F
:103B600000000000000000444D413500000000004E
:103B7000000000000000444D41360000000000003D
:103B80000000000000444D4137000000000000002C
:103B900000000000444D413800000000000000001B
:103BA000000000444D41390000000000000000000A
:103BB0000000444D413130000000000000000000D2
:103BC00000444D41313100000000000000000000C1
:103BD000444D41313200000000000000000000446C
:103BE0004D41313300000000000000000000444D52
:103BF00041313400000000000000000000444D414D
:103C0000313500000000000000000000444D415F1D
:103C10004572726F720000000000004D434D0000BD
:103C2000000000000000000000004654464C000068
:103C3000000000000000000000526561645F436FF7
:103C40006C6C6973696F6E004C56445F4C5657003C
:103C5000000000000000004C4C5700000000000075
:103C60000000000000005761746368646F67000023
:103C70000000000000524E4700000000000000005D
:103C80000000000049324330000000000000000046
:103C90000000004932433100000000000000000035
:103CA00000005350493000000000000000000000F8
:103CB00000535049310000000000000000000000E7
:103CC0005350493200000000000000000000004393
:103CD000414E305F4F525F4D425F62756600434117
:103CE0004E305F4275735F4F666600000043414E81
:103CF000305F4572726F72000000000043414E3029
:103D00005F54785F5761726E696E6743414E305FF2
:103D100052785F5761726E696E6743414E305F57EC
:103D2000616B655F55700000005265736572766562
:103D30006435310000000000526573657276656479
:103D40003532000000000043414E315F4F525F4D5D
:103D5000425F6275660043414E315F4275735F4F4B
:103D6000666600000043414E315F4572726F72001B
:103D70000000000043414E315F54785F5761726E1E
:103D8000696E6743414E315F52785F5761726E6969
:103D90006E6743414E315F57616B655F5570000040
:103DA0000052657365727665643539000000000065
:103DB0005265736572766564363000000000005508
:103DC000415254305F52585F545800000000554132
:103DD0005254305F455252000000000000554152DD
:103DE00054315F52585F54580000000055415254FE
:103DF000315F4552520000000000005541525432DC
:103E00005F52585F54580000000055415254325FD1
:103E100045525200000000000055415254335F5299
:103E2000585F54580000000055415254335F4552CA
:103E30005200000000000055415254345F52585F58
:103E400054580000000055415254345F455252000E
:103E5000000000000055415254355F52585F5458DD
:103E60000000000055415254355F45525200000099
:103E7000000000414443300000000000000000004A
:103E80000000414443310000000000000000000039
:103E900000434D5030000000000000000000000012
:103EA000434D5031000000000000000000000043BE
:103EB0004D50320000000000000000000000465499
:103EC0004D30000000000000000000000046544D8E
:103ED00031000000000000000000000046544D3298
:103EE0000000000000000000000000434D540000EE
:103EF00000000000000000000000525443000000D9
:103F000000000000000000000052657365727665D5
:103F100064383300000000005049543000000000B5
:103F20000000000000000050495431000000000073
:103F30000000000000005049543200000000000062
:103F40000000000000504954330000000000000051
:103F5000000000005044423000000000000000005B
:103F60000000005553423000000000000000000037
:103F7000000055534244434400000000000000008C
:103F800000454E45545F313538385F54696D657270
:103F9000454E45545F5472616E736D6974000045FF
:103FA0004E45545F52656365697665000000454E75
:103FB00045545F4572726F72000000000049325331
:103FC000300000000000000000000000534448439F
:103FD00000000000000000000000004441433000E9
:103FE00000000000000000000000444143310000D8
:103FF00000000000000000000054534930000000A1
:1040000000000000000000004D43470000000000D9
:10401000000000000000004C5054696D6572000003
:1040200000000000000052657365727665643130EF
:104030003200000000504F525441000000000000C8
:1040400000000000504F52544200000000000000E9
:10405000000000504F5254430000000000000000D8
:104060000000504F525444000000000000000000C7
:1040700000504F52544500000000000000000000B6
:104080005265736572766564313038000000005205
:1040900065736572766564313039000000005265E1
:1040A00073657276656431313000000000526573CB
:1040B00065727665643131310000000052657365C8
:1040C00072766564313132000000005265736572AA
:1040D0007665643131330000000052657365727695
:1040E0006564313134000000005265736572766595
:1040F0006431313500000000526573657276656485
:1041000031313600000000526573657276656431A6
:104110003137000000005265736572766564313195
:10412000380000000052657365727665643131397C
:1041300000000000008003400090034000800B401E
:1041400000F00F4040F00F4080F00F40C0F00F40F3
:1041500000F10F40F0000A1D300018003200180175
:10416000600018186400181A6E00181F78001318E1
:104170007D00131A8200131C8C000E1296000E157F
:10418000A0000E18AA000E1BB4000E1EC8000C1CC6
:10419000E1000B1EFA000A1F00010908009004400C
:1041A00000A0044000B0044000C0044000D004401F
:1041B00000A0064000B0064000C0064000D0064007
:1041C00000A00E4000B00E406A6E6B6C676D4E4FE3
:1041D00034353637B0550000B0550000B0550000FA
:1041E000B0550000B0550000B0550000B0550000BB
:1041F000FFFFFFFFFFFFFFFFB2550000B0550000BB
:10420000B0550000FFFFFFFFFFFF000002040101A7
:10421000680EFF1FB80EFF1F680EFF1F680EFF1FFE
:1042200000000000680EFF1F000000003C0CFF1F94
:10423000280CFF1F0000000000000000000000002C
:10424000000000000000000000000000000000006E
:1042500000000000DFF800F0B50DFF1F10B4DFF81C
:104260008813020052B231F82210020052B2012A21
:10427000C0F26C81020052B2112A80F26781DFF82D
:104280006C23002313700B009BB2312B02DA002346
:10429000537077E00B009BB2612B02DA012353705D
:1042A00070E00B009BB2912B02DA0223537069E09D
:1042B0000B009BB2C12B02DA0323537062E00B00A8
:1042C0009BB2F12B02DA042353705BE00B009BB22C
:1042D00040F22114A34202DA0523537052E00B008E
:1042E0009BB240F25114A34202DA0623537049E014
:1042F0000B009BB240F28114A34202DA07235370F1
:1043000040E00B009BB240F2B114A34202DA082352
:10431000537037E00B009BB240F2E114A34202DA83
:10432000092353702EE00B009BB240F21124A342EC
:1043300002DA0A23537025E00B009BB240F24124BD
:10434000A34202DA0B2353701CE00B009BB240F235
:104350007124A34202DA0C23537013E00B009BB2CA
:1043600040F2A124A34202DA0D2353700AE00B00AD
:104370009BB240F2D124A34202DA0E23537001E033
:104380000F2353700B009BB21A2B02DA0023937099
:104390006AE00B009BB2332B02DA0123937063E0D7
:1043A0000B009BB24C2B02DA022393705CE00B00F3
:1043B0009BB2652B02DA0323937055E00B009BB28E
:1043C0007E2B02DA042393704EE00B009BB2972BF6
:1043D00002DA0523937047E00B009BB2B02B02DAA0
:1043E0000623937040E00B009BB2C92B02DA07232F
:1043F000937039E00B009BB2E22B02DA0823937032
:1044000032E00B009BB2FB2B02DA092393702BE006
:104410000B009BB2B3F58A7F02DA0A23937023E084
:104420000B009BB240F22D14A34202DA0B239370CF
:104430001AE00B009BB2B3F5A37F02DA0C23937052
:1044400012E00B009BB240F25F14A34202DA0D238C
:10445000937009E00B009BB2B3F5BC7F02DA0E2328
:10446000937001E00F2393700B009BB21A2B02DABA
:104470000023D3706AE00B009BB2332B02DA0123D6
:10448000D37063E00B009BB24C2B02DA0223D37093
:104490005CE00B009BB2652B02DA0323D37055E07E
:1044A0000B009BB27E2B02DA0423D3704EE00B008C
:1044B0009BB2972B02DA0523D37047E00B009BB227
:1044C000B02B02DA0623D37040E00B009BB2C92B5D
:1044D00002DA0723D37039E00B009BB2E22B02DA39
:1044E0000823D37032E00B009BB2FB2B02DA0923C6
:1044F000D3702BE00B009BB2B3F58A7F02DA0A235C
:10450000D37023E00B009BB240F22D14A34202DAD9
:104510000B23D3701AE00B009BB2B3F5A37F02DA32
:104520000C23D37012E00B009BB240F25F14A34245
:1045300002DA0D23D37009E00B009BB2B3F5BC7F08
:1045400002DA0E23D37001E00F23D37010BC704742
:1045500070B50400200040B2FFF780FE24480178C7
:1045600011F0FD010170017851F010010170214D31
:10457000B8202870204E3078C006FBD43078C0F3C5
:1045800081000228FAD11948C378827841780078EE
:10459000FFF760FE1448210049B200EB81018978E1
:1045A00011F01F01154A1170210049B200EB810181
:1045B000C97811F01F0151F04001114A1170317892
:1045C0008906FCD531784906FCD5297811F03F01E0
:1045D00029703178C1F381010329FAD164B230F82E
:1045E0002400C0B270BD0000400BFF1F840BFF1FF2
:1045F0000140064000400640064006400440064098
:104600000540064038B5040025006DB26D11280044
:10461000C0B2002802D001280DD019E0A1480168DD
:1046200051F000610160A048016831F09001016023
:104630000168016010E09D48016851F0006101606F
:104640009948016831F4104101600168016003E09C
:1046500033219748FDF754FE200040B2002800F0B7
:104660008980012800F08680032800F083800828D4
:104670004ED0092851D00A2854D00B2857D00C28E6
:104680005AD00D285DD00E2860D00F2863D0102896
:1046900070D0112864D0122867D013286AD014284B
:1046A00068D01A2866D01D2864D01E2862D0202821
:1046B00061D021285FD023285DD024285CD0252814
:1046C0005FD0262862D0272865D0282868D02928DE
:1046D0006BD02A286ED02B2871D02C2874D02D288E
:1046E00077D02E287AD02F287DD0302800F08580F2
:1046F00031287DD0322800F0808033287DD03428C6
:104700007BD03A2879D03D2877D03E2875D075E007
:1047100000212020FDF788FE74E000212120FDF714
:1047200083FE6FE000210720FDF77EFE6AE0002196
:104730000820FDF779FE65E000212220FDF774FED8
:1047400060E000212320FDF76FFE5BE000214020A8
:10475000FDF76AFE56E000214120FDF765FE51E0BD
:1047600000219820FDF760FE4CE000219920FDF724
:104770005BFE47E046E045E000218020FDF754FE67
:1047800040E000218120FDF74FFE3BE00021822028
:10479000FDF74AFE36E000218320FDF745FE31E0BB
:1047A00000212020FDF740FE2CE000212120FDF714
:1047B0003BFE27E000212420FDF736FE22E0002109
:1047C0002520FDF731FE1DE000212620FDF72CFEFF
:1047D00018E000212720FDF727FE13E000212A2002
:1047E000FDF722FE0EE000212B20FDF71DFE09E063
:1047F00000211120FDF718FE04E003E09A212C4867
:10480000FDF77EFD31BDF8B504000D00260076B23F
:1048100076110027290049B2200040B200F01BF8B1
:104820002449300040B251F8200000680006F7D556
:10483000300040B251F820000069320052B251F805
:104840002220126832F0800233005BB251F823104C
:104850000A6080B2F2BD70B4020052B2521110F080
:104860001F03144C0D006DB2AD0015F00C0555F092
:104870005005160076B254F82660B560042516007F
:1048800076B254F82660F5601D00EDB215F01F05F4
:1048900055F04005160076B254F82640256070BCED
:1048A000704700003C800440188004403080044081
:1048B000A85200001004FF1F0000000000000000CC
:1048C000002F000000000700070000147F147F1471
:1048D00000242A7F2A1200626408132300364955F7
:1048E000225000000503000000001C2241000000CF
:1048F00041221C000014083E08140008083E080865
:10490000000000A0600000080808080800006060BF
:104910000000002010080402003E5149453E0000FE
:10492000427F4000004261514946002141454B31E0
:10493000001814127F10002745454539003C4A49AC
:10494000493000017109050300364949493600061E
:104950004949291E00003636000000005636000086
:104960000008142241000014141414140000412201
:10497000140800020151090600324959513E007CD9
:104980001211127C007F49494936003E41414122C3
:10499000007F4141221C007F49494941007F0909AC
:1049A0000901003E4149497A007F0808087F00005C
:1049B000417F4100002040413F01007F0814224117
:1049C000007F40404040007F020C027F007F0408CF
:1049D000107F003E4141413E007F09090906003E2B
:1049E0004151215E007F0919294600464949493154
:1049F0000001017F0101003F4040403F001F204077
:104A0000201F003F4038403F006314081463000734
:104A10000870080700615149454300007F4141008B
:104A200000552A552A55000041417F00000402012B
:104A30000204004040404040000001020400002009
:104A400054545478007F4844443800384444442047
:104A500000384444487F00385454541800087E09F4
:104A600001020018A4A4A47C007F080404780000BC
:104A7000447D4000004080847D00007F1028440079
:104A80000000417F4000007C04180478007C08048A
:104A9000047800384444443800FC242424180018C6
:104AA000242418FC007C08040408004854545420B2
:104AB00000043F444020003C4040207C001C20403B
:104AC000201C003C4030403C004428102844001C7E
:104AD000A0A0A07C004464544C4414141414141476
:104AE000DFF800F001230000DFF800F0FB16000003
:104AF0004C48F021017001780906FCD5007810F0CF
:104B0000710F01D0002000E00120704780B54648B9
:104B1000016851F4002101604448016851F400210A
:104B20000160404801780906FBD5F02101700A2098
:104B3000FFF7DAFF01BD1CB50400210089B24FF474
:104B40000060414300910920394908709DF8020036
:104B5000384908709DF80100374908709DF8000039
:104B600036490870FFF7C4FF002801D100200DE08E
:104B7000200080B2002808D17FF0010240F20C41F1
:104B8000200080B200F003F800E0012016BD7CB5E3
:104B900006000C001500310089B24FF4006041435B
:104BA00011FA84F00190200080B2042190FBF1F210
:104BB00001FB1200002803D0EA212148FFF790FFF3
:104BC000200080B240F60101884203DBEC211C4842
:104BD000FFF786FF9DF80600164908709DF805004E
:104BE000154908709DF804001449087000959DF857
:104BF0000300144908709DF80200134908709DF8DD
:104C00000100124908709DF8000011490870062043
:104C100007490870FFF76CFF002801D1002000E071
:104C2000012076BD0000024004F0014008F0014080
:104C30000700024006000240050002400400024056
:104C4000DC5200000B0002400A0002400900024052
:104C500008000240F0B40F4E3468356855F47F0503
:104C600035600D0615F0706555EA0075170517F4E7
:104C700070073D431F0417F470273D43064F3D6006
:104C800000252F00FFB29F4201D26D1CF9E734606E
:104C9000F0BC704700F0014044800440002108004F
:104CA000411E80B20028FAD1704780B50121222030
:104CB000FDF74FF901212120FDF74BF9FFF7EEFF3A
:104CC00000212220FDF745F9FFF7E8FF0021212010
:104CD000FDF73FF901BD80B500212220FDF739F92C
:104CE00000212120FDF735F9FFF7D8FF0121212010
:104CF000FDF72FF9FFF7D2FF01212220FDF729F957
:104D0000FFF7CCFF01BD80B500212120FDF721F97F
:104D100000212220FDF7F1F8FFF7C0FF012121203B
:104D2000FDF717F9FFF7BAFF2220FDF76AF900280F
:104D300009D001212220FDF7E0F800212120FDF714
:104D400008F900200AE001212220FDF7D6F8002111
:104D50002120FDF7FEF8FFF7A1FF012002BD38B5C5
:104D6000040008252800451EC0B2002818D02006DF
:104D700004D501212220FDF7ECF803E000212220D8
:104D8000FDF7E7F86400FFF789FF01212120FDF717
:104D9000E0F8FFF783FF00212120FDF7DAF8E1E7D3
:104DA000FFF7B1FF31BD70B504000D001600FFF72D
:104DB0007CFF6000C0B2FFF7D2FF2800C0B2FFF74F
:104DC000CEFF3000C0B2FFF7CAFFFFF784FF70BD0F
:104DD00080B5012201212120FDF734F801220121B3
:104DE0002220FDF72FF823212120FDF741FB23216D
:104DF0002220FDF73DFB01BD80B500F089F800F0F1
:104E000028F800F00AF8FDF798FA012201210420A1
:104E1000FDF718F800F0A7F8FEE710B52E4C0320B8
:104E2000FFF796FB20602D4922684FF47A704243C9
:104E30000A6008682A490968C1F30361491CB0FB8C
:104E4000F1F0284908605FF4E1310120FDF79CFB97
:104E500010BD2DE9F0412449244888420AD000229F
:104E60001400B4F5826F05D251F8242040F82420B4
:104E7000641CF6E700F0C4F81D4B1E4A1E498E1A4A
:104E80003000461E002804D010781870521C5B1C9D
:104E9000F6E71A4D1A4C671B3800471E002803D04E
:104EA000002028706D1CF7E7DFF858C0DFF858E0E5
:104EB000DFF85880B8EB0E063000461E002808D0F8
:104EC0009EF800008CF800001EF1010E1CF1010C90
:104ED000F2E7BDE8F08100005C0EFF1F580EFF1FD7
:104EE00044800440600EFF1F000000000000FF1F10
:104EF0001004FF1F243A000054420000000EFF1F60
:104F0000B80EFF1F400CFF1FE04A00009C4C000041
:104F100080B500F007F80C490A884FF6FE70024091
:104F20000A8001BDEFF3118072B608494CF220529D
:104F30000A804DF628120A800100C9B2002900D16A
:104F400062B6704700000000002005400E200540BA
:104F5000012210F01F018A40264903005BB25B0961
:104F600041F82320704710B5FFF732FF00F070F8CA
:104F70005FF4E1310120FDF707FB0120FCF7E4FDC0
:104F80001D480168002000F089F80FF255015420F7
:104F900000F047F84420FFF7DBFF43F2C82400236A
:104FA000220004210020FCF79BFC002322000521A5
:104FB0000020FCF795FC0023220006210020FCF7CE
:104FC0008FFC0023220007210020FCF789FCFCF75E
:104FD0007FF9FBF78EFA0120FFF714FBFEE70000D4
:104FE00080B500F0D2F80548016851F00101016078
:104FF00001BD000000E100E0600EFF1F0C710340E6
:1050000010B504004FF4007094FBF0F100FB114068
:10501000002803D01E210B48FDF772F90A480460EE
:1050200010BD70B504000D00084E07480068B0427E
:1050300003D030210348FDF763F9200040B246F861
:10504000205070BDE053000008ED00E00000FF1F9D
:1050500080B500226B216820FFF7A5FE03221921ED
:105060006820FFF7A0FE04221A216820FFF79BFEAC
:1050700018221B216820FFF796FE00221C216820C1
:10508000FFF791FE00226A216820FFF78CFE0222C2
:1050900037216820FFF787FE01BD000038B5050005
:1050A0000C00002C03D122211748FDF729F91748DD
:1050B000016851F40001016000201549086015489D
:1050C000611E2A0052B212018150290049B2090121
:1050D0000144C96851F001012A0052B21201024490
:1050E000D160290049B20901014489684908490091
:1050F0002A0052B212010244916003212A0052B2E6
:1051000012011044816031BD785300003C8004409E
:1051100000700340007103407047704738B5334C4E
:1051200003213420FFF76FFB206003212120FFF7CC
:105130006AFB6060206861680818002804D1216853
:1051400060684143A16008E02168606841432268CB
:105150006068821891FBF2F0A060002020600020BF
:1051600060600020A0600C21200000F043F81EA524
:1051700021682800FDF7F4F961682800FDF7F0F9CF
:10518000A1682800FDF7ECF931BD10B50820184CD6
:105190002168226892FBF0F200FB1210002801D176
:1051A000FFF7BAFF4FF4FA702168226892FBF0F221
:1051B00000FB1210002801D1FFF7B0FF3220216858
:1051C000226892FBF0F200FB1210002801D1FFF7D9
:1051D000A4FF2068B0F5FA7F02DB0020206002E027
:1051E0002068401C206010BD25640A002C0EFF1FA3
:1051F000280EFF1F38B504000D000C480088ADF8DC
:1052000002000B480088ADF8000002220DF10201F7
:105210000120FDF7C2FA2A0021000120FDF7BDFAA6
:10522000022269460120FDF7B8FA31BD8A1C000050
:10523000061E00000A2A2A2A2A64656661756C74B3
:105240005F69737220656E7465726564206F6E208D
:10525000766563746F722025642A2A2A2A2A0A0A2C
:10526000257320496E7465727275707400000000B9
:10527000443A5C4941522D776F726B73706163657C
:105280005C4B696E657469735F4D4B36305C436887
:1052900069705C7372635C4D4B36305F5379735445
:1052A00069636B2E63000000443A5C4941522D77DC
:1052B0006F726B73706163655C4B696E6574697363
:1052C0005F4D4B36305C436869705C7372635C4D54
:1052D0004B36305F6164632E63000000443A5C49E2
:1052E00041522D776F726B73706163655C4B696EB1
:1052F000657469735F4D4B36305C436869705C73ED
:1053000072635C4D4B36305F666C6173682E630070
:10531000443A5C4941522D776F726B7370616365DB
:105320005C4B696E657469735F4D4B36305C4368E6
:1053300069705C7372635C4D4B36305F66746D2EC2
:1053400063000000443A5C4941522D776F726B73E1
:10535000706163655C4B696E657469735F4D4B3654
:10536000305C436869705C7372635C4D4B36305FD0
:105370006770696F2E630000443A5C4941522D7793
:105380006F726B73706163655C4B696E6574697392
:105390005F4D4B36305C436869705C7372635C4D83
:1053A0004B36305F5049542E63000000443A5C494C
:1053B00041522D776F726B73706163655C4B696EE0
:1053C000657469735F4D4B36305C436869705C731C
:1053D00072635C4D4B36305F756172742E630000F2
:1053E000443A5C4941522D776F726B73706163650B
:1053F0005C4B696E657469735F4D4B36305C436816
:1054000069705C7372635C6D6973632E6300000086
:1054100010B5074979441831064C7C44163404E031
:105420000A68081D114488470146A142F8D110BD01
:105430002C00000038000000417373657274696FBE
:105440006E206661696C656420696E202573206139
:1054500074206C696E652025640A000033C2FFFF6A
:10546000B8000000000EFF1F000000000ABDF8D0C9
:10547000D0BDE2CBF8B2D9D7F7A3ACC7EBD6D8D022
:10548000C2CBA2C8EBB9CCBCFE00000000F00DF806
:10549000002801D0FFF7BCFFAFF300800020AFF37E
:1054A0000080FFF760FD00F002F80120704700F077
:1054B00001B8000007463846FEF7AEFAFBE70000E9
:1054C00057656C6C636F6D650000000000000000A4
:1054D000000000000000000038B504460D462846D4
:1054E00000F006F8A84218BF0024204632BD000094
:1054F0000149FCF718BF00BFF80BFF1F0ABDF8C831
:10550000EBCBC0D1ADBBB7B5C8B4FDA3A1000000C3
:10551000312E536574204D6F746F725F5049440093
:10552000322E53657420536572766F5F50440000CD
:10553000332E53657420536572766F204D69640075
:10554000312E536574205020436F6E74726F6C005F
:10555000322E536574204920436F6E74726F6C0055
:10556000332E536574204420436F6E74726F6C0049
:10557000342E4E6F742075736564000057656C6C33
:10558000636F6D6500000000322E53657420537008
:1055900065656400AFF30080AFF30080FFF776FF2E
:1055A000352E476F21000000342E6261636B0000CE
:0455B00000002E00C9
:04000005000055950D
:00000001FF
